{
    "_format": "hh-sol-artifact-1",
    "contractName": "MyNFTGame",
    "sourceName": "contracts/MyNFTGame.sol",
    "abi": [
        {
            "inputs": [
                {
                    "internalType": "string[]",
                    "name": "characterNames",
                    "type": "string[]"
                },
                {
                    "internalType": "string[]",
                    "name": "images",
                    "type": "string[]"
                },
                {
                    "internalType": "uint256[]",
                    "name": "characterHp",
                    "type": "uint256[]"
                },
                {
                    "internalType": "uint256[]",
                    "name": "characterDamage",
                    "type": "uint256[]"
                },
                {
                    "internalType": "string",
                    "name": "bossName",
                    "type": "string"
                },
                {
                    "internalType": "string",
                    "name": "bossImage",
                    "type": "string"
                },
                {
                    "internalType": "uint256",
                    "name": "bossHp",
                    "type": "uint256"
                },
                {
                    "internalType": "uint256",
                    "name": "bossAttackDamage",
                    "type": "uint256"
                }
            ],
            "stateMutability": "nonpayable",
            "type": "constructor"
        },
        {
            "anonymous": false,
            "inputs": [
                {
                    "indexed": true,
                    "internalType": "address",
                    "name": "owner",
                    "type": "address"
                },
                {
                    "indexed": true,
                    "internalType": "address",
                    "name": "approved",
                    "type": "address"
                },
                {
                    "indexed": true,
                    "internalType": "uint256",
                    "name": "tokenId",
                    "type": "uint256"
                }
            ],
            "name": "Approval",
            "type": "event"
        },
        {
            "anonymous": false,
            "inputs": [
                {
                    "indexed": true,
                    "internalType": "address",
                    "name": "owner",
                    "type": "address"
                },
                {
                    "indexed": true,
                    "internalType": "address",
                    "name": "operator",
                    "type": "address"
                },
                {
                    "indexed": false,
                    "internalType": "bool",
                    "name": "approved",
                    "type": "bool"
                }
            ],
            "name": "ApprovalForAll",
            "type": "event"
        },
        {
            "anonymous": false,
            "inputs": [
                {
                    "indexed": false,
                    "internalType": "address",
                    "name": "sender",
                    "type": "address"
                },
                {
                    "indexed": false,
                    "internalType": "uint256",
                    "name": "tokenId",
                    "type": "uint256"
                },
                {
                    "indexed": false,
                    "internalType": "uint256",
                    "name": "characterIndex",
                    "type": "uint256"
                }
            ],
            "name": "CharacterNftMinted",
            "type": "event"
        },
        {
            "anonymous": false,
            "inputs": [
                {
                    "indexed": true,
                    "internalType": "address",
                    "name": "from",
                    "type": "address"
                },
                {
                    "indexed": true,
                    "internalType": "address",
                    "name": "to",
                    "type": "address"
                },
                {
                    "indexed": true,
                    "internalType": "uint256",
                    "name": "tokenId",
                    "type": "uint256"
                }
            ],
            "name": "Transfer",
            "type": "event"
        },
        {
            "anonymous": false,
            "inputs": [
                {
                    "indexed": false,
                    "internalType": "uint256",
                    "name": "newBossHp",
                    "type": "uint256"
                },
                {
                    "indexed": false,
                    "internalType": "uint256",
                    "name": "newPlayerHp",
                    "type": "uint256"
                }
            ],
            "name": "bossAttackCompleted",
            "type": "event"
        },
        {
            "inputs": [
                {
                    "internalType": "address",
                    "name": "to",
                    "type": "address"
                },
                {
                    "internalType": "uint256",
                    "name": "tokenId",
                    "type": "uint256"
                }
            ],
            "name": "approve",
            "outputs": [],
            "stateMutability": "nonpayable",
            "type": "function"
        },
        {
            "inputs": [],
            "name": "attackBoss",
            "outputs": [],
            "stateMutability": "nonpayable",
            "type": "function"
        },
        {
            "inputs": [
                {
                    "internalType": "address",
                    "name": "owner",
                    "type": "address"
                }
            ],
            "name": "balanceOf",
            "outputs": [
                {
                    "internalType": "uint256",
                    "name": "",
                    "type": "uint256"
                }
            ],
            "stateMutability": "view",
            "type": "function"
        },
        {
            "inputs": [],
            "name": "bigBoss",
            "outputs": [
                {
                    "internalType": "string",
                    "name": "name",
                    "type": "string"
                },
                {
                    "internalType": "string",
                    "name": "imageURI",
                    "type": "string"
                },
                {
                    "internalType": "uint256",
                    "name": "hp",
                    "type": "uint256"
                },
                {
                    "internalType": "uint256",
                    "name": "maxHp",
                    "type": "uint256"
                },
                {
                    "internalType": "uint256",
                    "name": "attackDamage",
                    "type": "uint256"
                }
            ],
            "stateMutability": "view",
            "type": "function"
        },
        {
            "inputs": [],
            "name": "checkIfUserHasNft",
            "outputs": [
                {
                    "components": [
                        {
                            "internalType": "uint256",
                            "name": "characterIndex",
                            "type": "uint256"
                        },
                        {
                            "internalType": "string",
                            "name": "name",
                            "type": "string"
                        },
                        {
                            "internalType": "string",
                            "name": "imageURI",
                            "type": "string"
                        },
                        {
                            "internalType": "uint256",
                            "name": "hp",
                            "type": "uint256"
                        },
                        {
                            "internalType": "uint256",
                            "name": "maxHp",
                            "type": "uint256"
                        },
                        {
                            "internalType": "uint256",
                            "name": "attackDamage",
                            "type": "uint256"
                        }
                    ],
                    "internalType": "struct MyNFTGame.CharacterAttributes",
                    "name": "",
                    "type": "tuple"
                }
            ],
            "stateMutability": "view",
            "type": "function"
        },
        {
            "inputs": [],
            "name": "getAllDefaultCharacters",
            "outputs": [
                {
                    "components": [
                        {
                            "internalType": "uint256",
                            "name": "characterIndex",
                            "type": "uint256"
                        },
                        {
                            "internalType": "string",
                            "name": "name",
                            "type": "string"
                        },
                        {
                            "internalType": "string",
                            "name": "imageURI",
                            "type": "string"
                        },
                        {
                            "internalType": "uint256",
                            "name": "hp",
                            "type": "uint256"
                        },
                        {
                            "internalType": "uint256",
                            "name": "maxHp",
                            "type": "uint256"
                        },
                        {
                            "internalType": "uint256",
                            "name": "attackDamage",
                            "type": "uint256"
                        }
                    ],
                    "internalType": "struct MyNFTGame.CharacterAttributes[]",
                    "name": "",
                    "type": "tuple[]"
                }
            ],
            "stateMutability": "view",
            "type": "function"
        },
        {
            "inputs": [
                {
                    "internalType": "uint256",
                    "name": "tokenId",
                    "type": "uint256"
                }
            ],
            "name": "getApproved",
            "outputs": [
                {
                    "internalType": "address",
                    "name": "",
                    "type": "address"
                }
            ],
            "stateMutability": "view",
            "type": "function"
        },
        {
            "inputs": [],
            "name": "getBoss",
            "outputs": [
                {
                    "components": [
                        {
                            "internalType": "string",
                            "name": "name",
                            "type": "string"
                        },
                        {
                            "internalType": "string",
                            "name": "imageURI",
                            "type": "string"
                        },
                        {
                            "internalType": "uint256",
                            "name": "hp",
                            "type": "uint256"
                        },
                        {
                            "internalType": "uint256",
                            "name": "maxHp",
                            "type": "uint256"
                        },
                        {
                            "internalType": "uint256",
                            "name": "attackDamage",
                            "type": "uint256"
                        }
                    ],
                    "internalType": "struct MyNFTGame.BigBoss",
                    "name": "",
                    "type": "tuple"
                }
            ],
            "stateMutability": "view",
            "type": "function"
        },
        {
            "inputs": [
                {
                    "internalType": "address",
                    "name": "owner",
                    "type": "address"
                },
                {
                    "internalType": "address",
                    "name": "operator",
                    "type": "address"
                }
            ],
            "name": "isApprovedForAll",
            "outputs": [
                {
                    "internalType": "bool",
                    "name": "",
                    "type": "bool"
                }
            ],
            "stateMutability": "view",
            "type": "function"
        },
        {
            "inputs": [
                {
                    "internalType": "uint256",
                    "name": "_idx",
                    "type": "uint256"
                }
            ],
            "name": "mintCharaterNFT",
            "outputs": [],
            "stateMutability": "nonpayable",
            "type": "function"
        },
        {
            "inputs": [],
            "name": "name",
            "outputs": [
                {
                    "internalType": "string",
                    "name": "",
                    "type": "string"
                }
            ],
            "stateMutability": "view",
            "type": "function"
        },
        {
            "inputs": [
                {
                    "internalType": "uint256",
                    "name": "",
                    "type": "uint256"
                }
            ],
            "name": "nftHolderAttributes",
            "outputs": [
                {
                    "internalType": "uint256",
                    "name": "characterIndex",
                    "type": "uint256"
                },
                {
                    "internalType": "string",
                    "name": "name",
                    "type": "string"
                },
                {
                    "internalType": "string",
                    "name": "imageURI",
                    "type": "string"
                },
                {
                    "internalType": "uint256",
                    "name": "hp",
                    "type": "uint256"
                },
                {
                    "internalType": "uint256",
                    "name": "maxHp",
                    "type": "uint256"
                },
                {
                    "internalType": "uint256",
                    "name": "attackDamage",
                    "type": "uint256"
                }
            ],
            "stateMutability": "view",
            "type": "function"
        },
        {
            "inputs": [
                {
                    "internalType": "address",
                    "name": "",
                    "type": "address"
                }
            ],
            "name": "nftHolders",
            "outputs": [
                {
                    "internalType": "uint256",
                    "name": "",
                    "type": "uint256"
                }
            ],
            "stateMutability": "view",
            "type": "function"
        },
        {
            "inputs": [
                {
                    "internalType": "uint256",
                    "name": "tokenId",
                    "type": "uint256"
                }
            ],
            "name": "ownerOf",
            "outputs": [
                {
                    "internalType": "address",
                    "name": "",
                    "type": "address"
                }
            ],
            "stateMutability": "view",
            "type": "function"
        },
        {
            "inputs": [
                {
                    "internalType": "address",
                    "name": "from",
                    "type": "address"
                },
                {
                    "internalType": "address",
                    "name": "to",
                    "type": "address"
                },
                {
                    "internalType": "uint256",
                    "name": "tokenId",
                    "type": "uint256"
                }
            ],
            "name": "safeTransferFrom",
            "outputs": [],
            "stateMutability": "nonpayable",
            "type": "function"
        },
        {
            "inputs": [
                {
                    "internalType": "address",
                    "name": "from",
                    "type": "address"
                },
                {
                    "internalType": "address",
                    "name": "to",
                    "type": "address"
                },
                {
                    "internalType": "uint256",
                    "name": "tokenId",
                    "type": "uint256"
                },
                {
                    "internalType": "bytes",
                    "name": "_data",
                    "type": "bytes"
                }
            ],
            "name": "safeTransferFrom",
            "outputs": [],
            "stateMutability": "nonpayable",
            "type": "function"
        },
        {
            "inputs": [
                {
                    "internalType": "address",
                    "name": "operator",
                    "type": "address"
                },
                {
                    "internalType": "bool",
                    "name": "approved",
                    "type": "bool"
                }
            ],
            "name": "setApprovalForAll",
            "outputs": [],
            "stateMutability": "nonpayable",
            "type": "function"
        },
        {
            "inputs": [
                {
                    "internalType": "bytes4",
                    "name": "interfaceId",
                    "type": "bytes4"
                }
            ],
            "name": "supportsInterface",
            "outputs": [
                {
                    "internalType": "bool",
                    "name": "",
                    "type": "bool"
                }
            ],
            "stateMutability": "view",
            "type": "function"
        },
        {
            "inputs": [],
            "name": "symbol",
            "outputs": [
                {
                    "internalType": "string",
                    "name": "",
                    "type": "string"
                }
            ],
            "stateMutability": "view",
            "type": "function"
        },
        {
            "inputs": [
                {
                    "internalType": "uint256",
                    "name": "_tokenId",
                    "type": "uint256"
                }
            ],
            "name": "tokenURI",
            "outputs": [
                {
                    "internalType": "string",
                    "name": "",
                    "type": "string"
                }
            ],
            "stateMutability": "view",
            "type": "function"
        },
        {
            "inputs": [
                {
                    "internalType": "address",
                    "name": "from",
                    "type": "address"
                },
                {
                    "internalType": "address",
                    "name": "to",
                    "type": "address"
                },
                {
                    "internalType": "uint256",
                    "name": "tokenId",
                    "type": "uint256"
                }
            ],
            "name": "transferFrom",
            "outputs": [],
            "stateMutability": "nonpayable",
            "type": "function"
        }
    ],
    "bytecode": "0x60806040523480156200001157600080fd5b506040516200585938038062005859833981810160405281019062000037919062000b6e565b6040518060400160405280600581526020017f4865726f730000000000000000000000000000000000000000000000000000008152506040518060400160405280600481526020017f4845524f000000000000000000000000000000000000000000000000000000008152508160009080519060200190620000bb92919062000901565b508060019080519060200190620000d492919062000901565b505050620001226040518060400160405280601b81526020017f4c657473206275696c6420616e2065706963204e46542067616d650000000000815250620006cd60201b62001b881760201c565b6040518060a0016040528085815260200184815260200183815260200183815260200182815250600a60008201518160000190805190602001906200016992919062000901565b5060208201518160010190805190602001906200018892919062000901565b506040820151816002015560608201518160030155608082015181600401559050506200028b6040518060400160405280600781526020017f626f7373203a2000000000000000000000000000000000000000000000000000815250600a6000018054620001f69062000f58565b80601f0160208091040260200160405190810160405280929190818152602001828054620002249062000f58565b8015620002755780601f10620002495761010080835404028352916020019162000275565b820191906000526020600020905b8154815290600101906020018083116200025757829003601f168201915b50505050506200077060201b62001c211760201c565b60005b8851811015620006a75760096040518060c001604052808381526020018b8481518110620002e5577f4e487b7100000000000000000000000000000000000000000000000000000000600052603260045260246000fd5b602002602001015181526020018a84815181106200032c577f4e487b7100000000000000000000000000000000000000000000000000000000600052603260045260246000fd5b6020026020010151815260200189848151811062000373577f4e487b7100000000000000000000000000000000000000000000000000000000600052603260045260246000fd5b60200260200101518152602001898481518110620003ba577f4e487b7100000000000000000000000000000000000000000000000000000000600052603260045260246000fd5b6020026020010151815260200188848151811062000401577f4e487b7100000000000000000000000000000000000000000000000000000000600052603260045260246000fd5b602002602001015181525090806001815401808255809150506001900390600052602060002090600602016000909190919091506000820151816000015560208201518160010190805190602001906200045d92919062000901565b5060408201518160020190805190602001906200047c92919062000901565b50606082015181600301556080820151816004015560a082015181600501555050600060098281548110620004da577f4e487b7100000000000000000000000000000000000000000000000000000000600052603260045260246000fd5b90600052602060002090600602016040518060c0016040529081600082015481526020016001820180546200050f9062000f58565b80601f01602080910402602001604051908101604052809291908181526020018280546200053d9062000f58565b80156200058e5780601f1062000562576101008083540402835291602001916200058e565b820191906000526020600020905b8154815290600101906020018083116200057057829003601f168201915b50505050508152602001600282018054620005a99062000f58565b80601f0160208091040260200160405190810160405280929190818152602001828054620005d79062000f58565b8015620006285780601f10620005fc5761010080835404028352916020019162000628565b820191906000526020600020905b8154815290600101906020018083116200060a57829003601f168201915b50505050508152602001600382015481526020016004820154815260200160058201548152505090506200068f60405180606001604052806025815260200162005834602591398260200151836060015184604001516200081660201b62001cbd1760201c565b506001816200069f919062000ebb565b90506200028e565b50620006bf6006620008c260201b62001d5f1760201c565b505050505050505062001046565b6200076d81604051602401620006e4919062000d19565b6040516020818303038152906040527f41304fac000000000000000000000000000000000000000000000000000000007bffffffffffffffffffffffffffffffffffffffffffffffffffffffff19166020820180517bffffffffffffffffffffffffffffffffffffffffffffffffffffffff8381831617835250505050620008d860201b60201c565b50565b6200081282826040516024016200078992919062000d3d565b6040516020818303038152906040527f4b5c4277000000000000000000000000000000000000000000000000000000007bffffffffffffffffffffffffffffffffffffffffffffffffffffffff19166020820180517bffffffffffffffffffffffffffffffffffffffffffffffffffffffff8381831617835250505050620008d860201b60201c565b5050565b620008bc8484848460405160240162000833949392919062000d78565b6040516020818303038152906040527f8d142cdd000000000000000000000000000000000000000000000000000000007bffffffffffffffffffffffffffffffffffffffffffffffffffffffff19166020820180517bffffffffffffffffffffffffffffffffffffffffffffffffffffffff8381831617835250505050620008d860201b60201c565b50505050565b6001816000016000828254019250508190555050565b60008151905060006a636f6e736f6c652e6c6f679050602083016000808483855afa5050505050565b8280546200090f9062000f58565b90600052602060002090601f0160209004810192826200093357600085556200097f565b82601f106200094e57805160ff19168380011785556200097f565b828001600101855582156200097f579182015b828111156200097e57825182559160200191906001019062000961565b5b5090506200098e919062000992565b5090565b5b80821115620009ad57600081600090555060010162000993565b5090565b6000620009c8620009c28462000e0e565b62000dda565b9050808382526020820190508260005b8581101562000a0c5781518501620009f1888262000b2a565b845260208401935060208301925050600181019050620009d8565b5050509392505050565b600062000a2d62000a278462000e3d565b62000dda565b9050808382526020820190508285602086028201111562000a4d57600080fd5b60005b8581101562000a81578162000a66888262000b57565b84526020840193506020830192505060018101905062000a50565b5050509392505050565b600062000aa262000a9c8462000e6c565b62000dda565b90508281526020810184848401111562000abb57600080fd5b62000ac884828562000f22565b509392505050565b600082601f83011262000ae257600080fd5b815162000af4848260208601620009b1565b91505092915050565b600082601f83011262000b0f57600080fd5b815162000b2184826020860162000a16565b91505092915050565b600082601f83011262000b3c57600080fd5b815162000b4e84826020860162000a8b565b91505092915050565b60008151905062000b68816200102c565b92915050565b600080600080600080600080610100898b03121562000b8c57600080fd5b600089015167ffffffffffffffff81111562000ba757600080fd5b62000bb58b828c0162000ad0565b985050602089015167ffffffffffffffff81111562000bd357600080fd5b62000be18b828c0162000ad0565b975050604089015167ffffffffffffffff81111562000bff57600080fd5b62000c0d8b828c0162000afd565b965050606089015167ffffffffffffffff81111562000c2b57600080fd5b62000c398b828c0162000afd565b955050608089015167ffffffffffffffff81111562000c5757600080fd5b62000c658b828c0162000b2a565b94505060a089015167ffffffffffffffff81111562000c8357600080fd5b62000c918b828c0162000b2a565b93505060c062000ca48b828c0162000b57565b92505060e062000cb78b828c0162000b57565b9150509295985092959890939650565b600062000cd48262000e9f565b62000ce0818562000eaa565b935062000cf281856020860162000f22565b62000cfd816200101b565b840191505092915050565b62000d138162000f18565b82525050565b6000602082019050818103600083015262000d35818462000cc7565b905092915050565b6000604082019050818103600083015262000d59818562000cc7565b9050818103602083015262000d6f818462000cc7565b90509392505050565b6000608082019050818103600083015262000d94818762000cc7565b9050818103602083015262000daa818662000cc7565b905062000dbb604083018562000d08565b818103606083015262000dcf818462000cc7565b905095945050505050565b6000604051905081810181811067ffffffffffffffff8211171562000e045762000e0362000fec565b5b8060405250919050565b600067ffffffffffffffff82111562000e2c5762000e2b62000fec565b5b602082029050602081019050919050565b600067ffffffffffffffff82111562000e5b5762000e5a62000fec565b5b602082029050602081019050919050565b600067ffffffffffffffff82111562000e8a5762000e8962000fec565b5b601f19601f8301169050602081019050919050565b600081519050919050565b600082825260208201905092915050565b600062000ec88262000f18565b915062000ed58362000f18565b9250827fffffffffffffffffffffffffffffffffffffffffffffffffffffffffffffffff0382111562000f0d5762000f0c62000f8e565b5b828201905092915050565b6000819050919050565b60005b8381101562000f4257808201518184015260208101905062000f25565b8381111562000f52576000848401525b50505050565b6000600282049050600182168062000f7157607f821691505b6020821081141562000f885762000f8762000fbd565b5b50919050565b7f4e487b7100000000000000000000000000000000000000000000000000000000600052601160045260246000fd5b7f4e487b7100000000000000000000000000000000000000000000000000000000600052602260045260246000fd5b7f4e487b7100000000000000000000000000000000000000000000000000000000600052604160045260246000fd5b6000601f19601f8301169050919050565b620010378162000f18565b81146200104357600080fd5b50565b6147de80620010566000396000f3fe608060405234801561001057600080fd5b50600436106101375760003560e01c806395d89b41116100b8578063b953084e1161007c578063b953084e14610367578063c732d39614610385578063c76d9e7d146103a3578063c87b56dd146103c1578063d4f24c5b146103f1578063e985e9c5146103fb57610137565b806395d89b41146102ba57806398da4c95146102d8578063a22cb4651461030d578063a9c3267914610329578063b88d4fde1461034b57610137565b806342842e0e116100ff57806342842e0e146101f25780636352211e1461020e57806370a082311461023e5780637df124a11461026e57806387c01b371461029e57610137565b806301ffc9a71461013c57806306fdde031461016c578063081812fc1461018a578063095ea7b3146101ba57806323b872dd146101d6575b600080fd5b61015660048036038101906101519190613068565b61042b565b6040516101639190613dee565b60405180910390f35b61017461050d565b6040516101819190613e09565b60405180910390f35b6101a4600480360381019061019f91906130ba565b61059f565b6040516101b19190613d2e565b60405180910390f35b6101d460048036038101906101cf919061302c565b610624565b005b6101f060048036038101906101eb9190612f26565b61073c565b005b61020c60048036038101906102079190612f26565b61079c565b005b610228600480360381019061022391906130ba565b6107bc565b6040516102359190613d2e565b60405180910390f35b61025860048036038101906102539190612ec1565b61086e565b60405161026591906141d2565b60405180910390f35b61028860048036038101906102839190612ec1565b610926565b60405161029591906141d2565b60405180910390f35b6102b860048036038101906102b391906130ba565b61093e565b005b6102c2610d4f565b6040516102cf9190613e09565b60405180910390f35b6102f260048036038101906102ed91906130ba565b610de1565b604051610304969594939291906141ed565b60405180910390f35b61032760048036038101906103229190612ff0565b610f2d565b005b610331610f43565b604051610342959493929190613f0f565b60405180910390f35b61036560048036038101906103609190612f75565b611077565b005b61036f6110d9565b60405161037c9190613dcc565b60405180910390f35b61038d611284565b60405161039a91906141b0565b60405180910390f35b6103ab61145c565b6040516103b8919061418e565b60405180910390f35b6103db60048036038101906103d691906130ba565b6115b8565b6040516103e89190613e09565b60405180910390f35b6103f96117d3565b005b61041560048036038101906104109190612eea565b611af4565b6040516104229190613dee565b60405180910390f35b60007f80ac58cd000000000000000000000000000000000000000000000000000000007bffffffffffffffffffffffffffffffffffffffffffffffffffffffff1916827bffffffffffffffffffffffffffffffffffffffffffffffffffffffff191614806104f657507f5b5e139f000000000000000000000000000000000000000000000000000000007bffffffffffffffffffffffffffffffffffffffffffffffffffffffff1916827bffffffffffffffffffffffffffffffffffffffffffffffffffffffff1916145b80610506575061050582611d75565b5b9050919050565b60606000805461051c9061453e565b80601f01602080910402602001604051908101604052809291908181526020018280546105489061453e565b80156105955780601f1061056a57610100808354040283529160200191610595565b820191906000526020600020905b81548152906001019060200180831161057857829003601f168201915b5050505050905090565b60006105aa82611ddf565b6105e9576040517f08c379a00000000000000000000000000000000000000000000000000000000081526004016105e0906140ee565b60405180910390fd5b6004600083815260200190815260200160002060009054906101000a900473ffffffffffffffffffffffffffffffffffffffff169050919050565b600061062f826107bc565b90508073ffffffffffffffffffffffffffffffffffffffff168373ffffffffffffffffffffffffffffffffffffffff1614156106a0576040517f08c379a00000000000000000000000000000000000000000000000000000000081526004016106979061412e565b60405180910390fd5b8073ffffffffffffffffffffffffffffffffffffffff166106bf611e4b565b73ffffffffffffffffffffffffffffffffffffffff1614806106ee57506106ed816106e8611e4b565b611af4565b5b61072d576040517f08c379a00000000000000000000000000000000000000000000000000000000081526004016107249061406e565b60405180910390fd5b6107378383611e53565b505050565b61074d610747611e4b565b82611f0c565b61078c576040517f08c379a00000000000000000000000000000000000000000000000000000000081526004016107839061416e565b60405180910390fd5b610797838383611fea565b505050565b6107b783838360405180602001604052806000815250611077565b505050565b6000806002600084815260200190815260200160002060009054906101000a900473ffffffffffffffffffffffffffffffffffffffff169050600073ffffffffffffffffffffffffffffffffffffffff168173ffffffffffffffffffffffffffffffffffffffff161415610865576040517f08c379a000000000000000000000000000000000000000000000000000000000815260040161085c906140ae565b60405180910390fd5b80915050919050565b60008073ffffffffffffffffffffffffffffffffffffffff168273ffffffffffffffffffffffffffffffffffffffff1614156108df576040517f08c379a00000000000000000000000000000000000000000000000000000000081526004016108d69061408e565b60405180910390fd5b600360008373ffffffffffffffffffffffffffffffffffffffff1673ffffffffffffffffffffffffffffffffffffffff168152602001908152602001600020549050919050565b60086020528060005260406000206000915090505481565b600061094a6006612246565b90506109563382612254565b6040518060c00160405280838152602001600984815481106109a1577f4e487b7100000000000000000000000000000000000000000000000000000000600052603260045260246000fd5b906000526020600020906006020160010180546109bd9061453e565b80601f01602080910402602001604051908101604052809291908181526020018280546109e99061453e565b8015610a365780601f10610a0b57610100808354040283529160200191610a36565b820191906000526020600020905b815481529060010190602001808311610a1957829003601f168201915b5050505050815260200160098481548110610a7a577f4e487b7100000000000000000000000000000000000000000000000000000000600052603260045260246000fd5b90600052602060002090600602016002018054610a969061453e565b80601f0160208091040260200160405190810160405280929190818152602001828054610ac29061453e565b8015610b0f5780601f10610ae457610100808354040283529160200191610b0f565b820191906000526020600020905b815481529060010190602001808311610af257829003601f168201915b5050505050815260200160098481548110610b53577f4e487b7100000000000000000000000000000000000000000000000000000000600052603260045260246000fd5b906000526020600020906006020160030154815260200160098481548110610ba4577f4e487b7100000000000000000000000000000000000000000000000000000000600052603260045260246000fd5b906000526020600020906006020160040154815260200160098481548110610bf5577f4e487b7100000000000000000000000000000000000000000000000000000000600052603260045260246000fd5b90600052602060002090600602016005015481525060076000838152602001908152602001600020600082015181600001556020820151816001019080519060200190610c43929190612ce8565b506040820151816002019080519060200190610c60929190612ce8565b50606082015181600301556080820151816004015560a0820151816005015590505080600860003373ffffffffffffffffffffffffffffffffffffffff1673ffffffffffffffffffffffffffffffffffffffff16815260200190815260200160002081905550610d066040518060400160405280600b81526020017f4d696e746564204e4654200000000000000000000000000000000000000000008152508284612272565b7f5c5a40a57afc3c1041f01d72639b5cc9543d2f381f4f9869d6ce1ed50b45d498338284604051610d3993929190613d95565b60405180910390a1610d4b6006611d5f565b5050565b606060018054610d5e9061453e565b80601f0160208091040260200160405190810160405280929190818152602001828054610d8a9061453e565b8015610dd75780601f10610dac57610100808354040283529160200191610dd7565b820191906000526020600020905b815481529060010190602001808311610dba57829003601f168201915b5050505050905090565b6007602052806000526040600020600091509050806000015490806001018054610e0a9061453e565b80601f0160208091040260200160405190810160405280929190818152602001828054610e369061453e565b8015610e835780601f10610e5857610100808354040283529160200191610e83565b820191906000526020600020905b815481529060010190602001808311610e6657829003601f168201915b505050505090806002018054610e989061453e565b80601f0160208091040260200160405190810160405280929190818152602001828054610ec49061453e565b8015610f115780601f10610ee657610100808354040283529160200191610f11565b820191906000526020600020905b815481529060010190602001808311610ef457829003601f168201915b5050505050908060030154908060040154908060050154905086565b610f3f610f38611e4b565b8383612311565b5050565b600a806000018054610f549061453e565b80601f0160208091040260200160405190810160405280929190818152602001828054610f809061453e565b8015610fcd5780601f10610fa257610100808354040283529160200191610fcd565b820191906000526020600020905b815481529060010190602001808311610fb057829003601f168201915b505050505090806001018054610fe29061453e565b80601f016020809104026020016040519081016040528092919081815260200182805461100e9061453e565b801561105b5780601f106110305761010080835404028352916020019161105b565b820191906000526020600020905b81548152906001019060200180831161103e57829003601f168201915b5050505050908060020154908060030154908060040154905085565b611088611082611e4b565b83611f0c565b6110c7576040517f08c379a00000000000000000000000000000000000000000000000000000000081526004016110be9061416e565b60405180910390fd5b6110d38484848461247e565b50505050565b60606009805480602002602001604051908101604052809291908181526020016000905b8282101561127b57838290600052602060002090600602016040518060c00160405290816000820154815260200160018201805461113a9061453e565b80601f01602080910402602001604051908101604052809291908181526020018280546111669061453e565b80156111b35780601f10611188576101008083540402835291602001916111b3565b820191906000526020600020905b81548152906001019060200180831161119657829003601f168201915b505050505081526020016002820180546111cc9061453e565b80601f01602080910402602001604051908101604052809291908181526020018280546111f89061453e565b80156112455780601f1061121a57610100808354040283529160200191611245565b820191906000526020600020905b81548152906001019060200180831161122857829003601f168201915b505050505081526020016003820154815260200160048201548152602001600582015481525050815260200190600101906110fd565b50505050905090565b61128c612d6e565b6000600860003373ffffffffffffffffffffffffffffffffffffffff1673ffffffffffffffffffffffffffffffffffffffff168152602001908152602001600020549050600081111561144b57600760008281526020019081526020016000206040518060c0016040529081600082015481526020016001820180546113119061453e565b80601f016020809104026020016040519081016040528092919081815260200182805461133d9061453e565b801561138a5780601f1061135f5761010080835404028352916020019161138a565b820191906000526020600020905b81548152906001019060200180831161136d57829003601f168201915b505050505081526020016002820180546113a39061453e565b80601f01602080910402602001604051908101604052809291908181526020018280546113cf9061453e565b801561141c5780601f106113f15761010080835404028352916020019161141c565b820191906000526020600020905b8154815290600101906020018083116113ff57829003601f168201915b505050505081526020016003820154815260200160048201548152602001600582015481525050915050611459565b611453612d6e565b80925050505b90565b611464612da4565b600a6040518060a00160405290816000820180546114819061453e565b80601f01602080910402602001604051908101604052809291908181526020018280546114ad9061453e565b80156114fa5780601f106114cf576101008083540402835291602001916114fa565b820191906000526020600020905b8154815290600101906020018083116114dd57829003601f168201915b505050505081526020016001820180546115139061453e565b80601f016020809104026020016040519081016040528092919081815260200182805461153f9061453e565b801561158c5780601f106115615761010080835404028352916020019161158c565b820191906000526020600020905b81548152906001019060200180831161156f57829003601f168201915b505050505081526020016002820154815260200160038201548152602001600482015481525050905090565b60606000600760008481526020019081526020016000206040518060c0016040529081600082015481526020016001820180546115f49061453e565b80601f01602080910402602001604051908101604052809291908181526020018280546116209061453e565b801561166d5780601f106116425761010080835404028352916020019161166d565b820191906000526020600020905b81548152906001019060200180831161165057829003601f168201915b505050505081526020016002820180546116869061453e565b80601f01602080910402602001604051908101604052809291908181526020018280546116b29061453e565b80156116ff5780601f106116d4576101008083540402835291602001916116ff565b820191906000526020600020905b8154815290600101906020018083116116e257829003601f168201915b5050505050815260200160038201548152602001600482015481526020016005820154815250509050600061173782606001516124da565b9050600061174883608001516124da565b905060006117598460a001516124da565b9050600061179f856020015161176e896124da565b876040015187878760405160200161178b96959493929190613c67565b604051602081830303815290604052612687565b90506000816040516020016117b49190613d0c565b6040516020818303038152906040529050809650505050505050919050565b6000600860003373ffffffffffffffffffffffffffffffffffffffff1673ffffffffffffffffffffffffffffffffffffffff16815260200190815260200160002054905060006007600083815260200190815260200160002090506118e66040518060600160405280602c8152602001614714602c91398260010180546118599061453e565b80601f01602080910402602001604051908101604052809291908181526020018280546118859061453e565b80156118d25780601f106118a7576101008083540402835291602001916118d2565b820191906000526020600020905b8154815290600101906020018083116118b557829003601f168201915b505050505083600301548460050154612845565b6119a160405180606001604052806029815260200161474060299139600a60000180546119129061453e565b80601f016020809104026020016040519081016040528092919081815260200182805461193e9061453e565b801561198b5780601f106119605761010080835404028352916020019161198b565b820191906000526020600020905b81548152906001019060200180831161196e57829003601f168201915b5050505050600a60020154600a60040154612845565b60008160030154116119e8576040517f08c379a00000000000000000000000000000000000000000000000000000000081526004016119df9061402e565b60405180910390fd5b6000600a6002015411611a30576040517f08c379a0000000000000000000000000000000000000000000000000000000008152600401611a279061414e565b60405180910390fd5b8060050154600a600201541015611a51576000600a60020181905550611a70565b8060050154600a60020154611a669190614454565b600a600201819055505b600a6004015481600301541015611a905760008160030181905550611aae565b600a600401548160030154611aa59190614454565b81600301819055505b7f8b383d5a96144af73d2b8e916118a12543252d7354ae0ac9e4b940e5cb9e4e83600a600201548260030154604051611ae892919061425c565b60405180910390a15050565b6000600560008473ffffffffffffffffffffffffffffffffffffffff1673ffffffffffffffffffffffffffffffffffffffff16815260200190815260200160002060008373ffffffffffffffffffffffffffffffffffffffff1673ffffffffffffffffffffffffffffffffffffffff16815260200190815260200160002060009054906101000a900460ff16905092915050565b611c1e81604051602401611b9c9190613e09565b6040516020818303038152906040527f41304fac000000000000000000000000000000000000000000000000000000007bffffffffffffffffffffffffffffffffffffffffffffffffffffffff19166020820180517bffffffffffffffffffffffffffffffffffffffffffffffffffffffff83818316178352505050506128e7565b50565b611cb98282604051602401611c37929190613e2b565b6040516020818303038152906040527f4b5c4277000000000000000000000000000000000000000000000000000000007bffffffffffffffffffffffffffffffffffffffffffffffffffffffff19166020820180517bffffffffffffffffffffffffffffffffffffffffffffffffffffffff83818316178352505050506128e7565b5050565b611d5984848484604051602401611cd79493929190613e62565b6040516020818303038152906040527f8d142cdd000000000000000000000000000000000000000000000000000000007bffffffffffffffffffffffffffffffffffffffffffffffffffffffff19166020820180517bffffffffffffffffffffffffffffffffffffffffffffffffffffffff83818316178352505050506128e7565b50505050565b6001816000016000828254019250508190555050565b60007f01ffc9a7000000000000000000000000000000000000000000000000000000007bffffffffffffffffffffffffffffffffffffffffffffffffffffffff1916827bffffffffffffffffffffffffffffffffffffffffffffffffffffffff1916149050919050565b60008073ffffffffffffffffffffffffffffffffffffffff166002600084815260200190815260200160002060009054906101000a900473ffffffffffffffffffffffffffffffffffffffff1673ffffffffffffffffffffffffffffffffffffffff1614159050919050565b600033905090565b816004600083815260200190815260200160002060006101000a81548173ffffffffffffffffffffffffffffffffffffffff021916908373ffffffffffffffffffffffffffffffffffffffff160217905550808273ffffffffffffffffffffffffffffffffffffffff16611ec6836107bc565b73ffffffffffffffffffffffffffffffffffffffff167f8c5be1e5ebec7d5bd14f71427d1e84f3dd0314c0f7b2291e5b200ac8c7c3b92560405160405180910390a45050565b6000611f1782611ddf565b611f56576040517f08c379a0000000000000000000000000000000000000000000000000000000008152600401611f4d9061404e565b60405180910390fd5b6000611f61836107bc565b90508073ffffffffffffffffffffffffffffffffffffffff168473ffffffffffffffffffffffffffffffffffffffff161480611fd057508373ffffffffffffffffffffffffffffffffffffffff16611fb88461059f565b73ffffffffffffffffffffffffffffffffffffffff16145b80611fe15750611fe08185611af4565b5b91505092915050565b8273ffffffffffffffffffffffffffffffffffffffff1661200a826107bc565b73ffffffffffffffffffffffffffffffffffffffff1614612060576040517f08c379a00000000000000000000000000000000000000000000000000000000081526004016120579061410e565b60405180910390fd5b600073ffffffffffffffffffffffffffffffffffffffff168273ffffffffffffffffffffffffffffffffffffffff1614156120d0576040517f08c379a00000000000000000000000000000000000000000000000000000000081526004016120c790613fee565b60405180910390fd5b6120db838383612910565b6120e6600082611e53565b6001600360008573ffffffffffffffffffffffffffffffffffffffff1673ffffffffffffffffffffffffffffffffffffffff16815260200190815260200160002060008282546121369190614454565b925050819055506001600360008473ffffffffffffffffffffffffffffffffffffffff1673ffffffffffffffffffffffffffffffffffffffff168152602001908152602001600020600082825461218d9190614373565b92505081905550816002600083815260200190815260200160002060006101000a81548173ffffffffffffffffffffffffffffffffffffffff021916908373ffffffffffffffffffffffffffffffffffffffff160217905550808273ffffffffffffffffffffffffffffffffffffffff168473ffffffffffffffffffffffffffffffffffffffff167fddf252ad1be2c89b69c2b068fc378daa952ba7f163c4a11628f55a4df523b3ef60405160405180910390a4505050565b600081600001549050919050565b61226e828260405180602001604052806000815250612915565b5050565b61230c83838360405160240161228a93929190613f70565b6040516020818303038152906040527f969cdd03000000000000000000000000000000000000000000000000000000007bffffffffffffffffffffffffffffffffffffffffffffffffffffffff19166020820180517bffffffffffffffffffffffffffffffffffffffffffffffffffffffff83818316178352505050506128e7565b505050565b8173ffffffffffffffffffffffffffffffffffffffff168373ffffffffffffffffffffffffffffffffffffffff161415612380576040517f08c379a00000000000000000000000000000000000000000000000000000000081526004016123779061400e565b60405180910390fd5b80600560008573ffffffffffffffffffffffffffffffffffffffff1673ffffffffffffffffffffffffffffffffffffffff16815260200190815260200160002060008473ffffffffffffffffffffffffffffffffffffffff1673ffffffffffffffffffffffffffffffffffffffff16815260200190815260200160002060006101000a81548160ff0219169083151502179055508173ffffffffffffffffffffffffffffffffffffffff168373ffffffffffffffffffffffffffffffffffffffff167f17307eab39ab6107e8899845ad3d59bd9653f200f220920489ca2b5937696c31836040516124719190613dee565b60405180910390a3505050565b612489848484611fea565b61249584848484612970565b6124d4576040517f08c379a00000000000000000000000000000000000000000000000000000000081526004016124cb90613fae565b60405180910390fd5b50505050565b60606000821415612522576040518060400160405280600181526020017f30000000000000000000000000000000000000000000000000000000000000008152509050612682565b600082905060005b6000821461255457808061253d90614570565b915050600a8261254d91906143c9565b915061252a565b60008167ffffffffffffffff811115612596577f4e487b7100000000000000000000000000000000000000000000000000000000600052604160045260246000fd5b6040519080825280601f01601f1916602001820160405280156125c85781602001600182028036833780820191505090505b5090505b6000851461267b576001826125e19190614454565b9150600a856125f091906145b9565b60306125fc9190614373565b60f81b818381518110612638577f4e487b7100000000000000000000000000000000000000000000000000000000600052603260045260246000fd5b60200101907effffffffffffffffffffffffffffffffffffffffffffffffffffffffffffff1916908160001a905350600a8561267491906143c9565b94506125cc565b8093505050505b919050565b606060008251905060008114156126b05760405180602001604052806000815250915050612840565b600060036002836126c19190614373565b6126cb91906143c9565b60046126d791906143fa565b905060006020826126e89190614373565b67ffffffffffffffff811115612727577f4e487b7100000000000000000000000000000000000000000000000000000000600052604160045260246000fd5b6040519080825280601f01601f1916602001820160405280156127595781602001600182028036833780820191505090505b5090506000604051806060016040528060408152602001614769604091399050600181016020830160005b868110156127fd5760038101905062ffffff818a015116603f8160121c168401518060081b905060ff603f83600c1c1686015116810190508060081b905060ff603f8360061c1686015116810190508060081b905060ff603f831686015116810190508060e01b90508084526004840193505050612784565b506003860660018114612817576002811461282757612832565b613d3d60f01b6002830352612832565b603d60f81b60018303525b508484525050819450505050505b919050565b6128e18484848460405160240161285f9493929190613ebc565b6040516020818303038152906040527fd5cf17d0000000000000000000000000000000000000000000000000000000007bffffffffffffffffffffffffffffffffffffffffffffffffffffffff19166020820180517bffffffffffffffffffffffffffffffffffffffffffffffffffffffff83818316178352505050506128e7565b50505050565b60008151905060006a636f6e736f6c652e6c6f679050602083016000808483855afa5050505050565b505050565b61291f8383612b07565b61292c6000848484612970565b61296b576040517f08c379a000000000000000000000000000000000000000000000000000000000815260040161296290613fae565b60405180910390fd5b505050565b60006129918473ffffffffffffffffffffffffffffffffffffffff16612cd5565b15612afa578373ffffffffffffffffffffffffffffffffffffffff1663150b7a026129ba611e4b565b8786866040518563ffffffff1660e01b81526004016129dc9493929190613d49565b602060405180830381600087803b1580156129f657600080fd5b505af1925050508015612a2757506040513d601f19601f82011682018060405250810190612a249190613091565b60015b612aaa573d8060008114612a57576040519150601f19603f3d011682016040523d82523d6000602084013e612a5c565b606091505b50600081511415612aa2576040517f08c379a0000000000000000000000000000000000000000000000000000000008152600401612a9990613fae565b60405180910390fd5b805181602001fd5b63150b7a0260e01b7bffffffffffffffffffffffffffffffffffffffffffffffffffffffff1916817bffffffffffffffffffffffffffffffffffffffffffffffffffffffff191614915050612aff565b600190505b949350505050565b600073ffffffffffffffffffffffffffffffffffffffff168273ffffffffffffffffffffffffffffffffffffffff161415612b77576040517f08c379a0000000000000000000000000000000000000000000000000000000008152600401612b6e906140ce565b60405180910390fd5b612b8081611ddf565b15612bc0576040517f08c379a0000000000000000000000000000000000000000000000000000000008152600401612bb790613fce565b60405180910390fd5b612bcc60008383612910565b6001600360008473ffffffffffffffffffffffffffffffffffffffff1673ffffffffffffffffffffffffffffffffffffffff1681526020019081526020016000206000828254612c1c9190614373565b92505081905550816002600083815260200190815260200160002060006101000a81548173ffffffffffffffffffffffffffffffffffffffff021916908373ffffffffffffffffffffffffffffffffffffffff160217905550808273ffffffffffffffffffffffffffffffffffffffff16600073ffffffffffffffffffffffffffffffffffffffff167fddf252ad1be2c89b69c2b068fc378daa952ba7f163c4a11628f55a4df523b3ef60405160405180910390a45050565b600080823b905060008111915050919050565b828054612cf49061453e565b90600052602060002090601f016020900481019282612d165760008555612d5d565b82601f10612d2f57805160ff1916838001178555612d5d565b82800160010185558215612d5d579182015b82811115612d5c578251825591602001919060010190612d41565b5b509050612d6a9190612dd3565b5090565b6040518060c001604052806000815260200160608152602001606081526020016000815260200160008152602001600081525090565b6040518060a0016040528060608152602001606081526020016000815260200160008152602001600081525090565b5b80821115612dec576000816000905550600101612dd4565b5090565b6000612e03612dfe846142b6565b614285565b905082815260208101848484011115612e1b57600080fd5b612e268482856144fc565b509392505050565b600081359050612e3d816146b7565b92915050565b600081359050612e52816146ce565b92915050565b600081359050612e67816146e5565b92915050565b600081519050612e7c816146e5565b92915050565b600082601f830112612e9357600080fd5b8135612ea3848260208601612df0565b91505092915050565b600081359050612ebb816146fc565b92915050565b600060208284031215612ed357600080fd5b6000612ee184828501612e2e565b91505092915050565b60008060408385031215612efd57600080fd5b6000612f0b85828601612e2e565b9250506020612f1c85828601612e2e565b9150509250929050565b600080600060608486031215612f3b57600080fd5b6000612f4986828701612e2e565b9350506020612f5a86828701612e2e565b9250506040612f6b86828701612eac565b9150509250925092565b60008060008060808587031215612f8b57600080fd5b6000612f9987828801612e2e565b9450506020612faa87828801612e2e565b9350506040612fbb87828801612eac565b925050606085013567ffffffffffffffff811115612fd857600080fd5b612fe487828801612e82565b91505092959194509250565b6000806040838503121561300357600080fd5b600061301185828601612e2e565b925050602061302285828601612e43565b9150509250929050565b6000806040838503121561303f57600080fd5b600061304d85828601612e2e565b925050602061305e85828601612eac565b9150509250929050565b60006020828403121561307a57600080fd5b600061308884828501612e58565b91505092915050565b6000602082840312156130a357600080fd5b60006130b184828501612e6d565b91505092915050565b6000602082840312156130cc57600080fd5b60006130da84828501612eac565b91505092915050565b60006130ef8383613b29565b905092915050565b61310081614488565b82525050565b6000613111826142f6565b61311b8185614324565b93508360208202850161312d856142e6565b8060005b85811015613169578484038952815161314a85826130e3565b945061315583614317565b925060208a01995050600181019050613131565b50829750879550505050505092915050565b6131848161449a565b82525050565b600061319582614301565b61319f8185614335565b93506131af81856020860161450b565b6131b8816146a6565b840191505092915050565b60006131ce8261430c565b6131d88185614346565b93506131e881856020860161450b565b6131f1816146a6565b840191505092915050565b60006132078261430c565b6132118185614357565b935061322181856020860161450b565b61322a816146a6565b840191505092915050565b60006132408261430c565b61324a8185614368565b935061325a81856020860161450b565b80840191505092915050565b6000613273600b83614368565b91507f202d2d204e465420233a200000000000000000000000000000000000000000006000830152600b82019050919050565b60006132b3603283614357565b91507f4552433732313a207472616e7366657220746f206e6f6e20455243373231526560008301527f63656976657220696d706c656d656e74657200000000000000000000000000006020830152604082019050919050565b6000613319601c83614357565b91507f4552433732313a20746f6b656e20616c7265616479206d696e746564000000006000830152602082019050919050565b6000613359600e83614368565b91507f2c20226d61785f76616c7565223a0000000000000000000000000000000000006000830152600e82019050919050565b6000613399602483614357565b91507f4552433732313a207472616e7366657220746f20746865207a65726f2061646460008301527f72657373000000000000000000000000000000000000000000000000000000006020830152604082019050919050565b60006133ff601983614357565b91507f4552433732313a20617070726f766520746f2063616c6c6572000000000000006000830152602082019050919050565b600061343f602583614357565b91507f4572726f72203a20546f2061747461636b20706c61796572206d75737420686160008301527f76652068700000000000000000000000000000000000000000000000000000006020830152604082019050919050565b60006134a5602c83614357565b91507f4552433732313a206f70657261746f7220717565727920666f72206e6f6e657860008301527f697374656e7420746f6b656e00000000000000000000000000000000000000006020830152604082019050919050565b600061350b603883614357565b91507f4552433732313a20617070726f76652063616c6c6572206973206e6f74206f7760008301527f6e6572206e6f7220617070726f76656420666f7220616c6c00000000000000006020830152604082019050919050565b6000613571602a83614357565b91507f4552433732313a2062616c616e636520717565727920666f7220746865207a6560008301527f726f2061646472657373000000000000000000000000000000000000000000006020830152604082019050919050565b60006135d7602983614357565b91507f4552433732313a206f776e657220717565727920666f72206e6f6e657869737460008301527f656e7420746f6b656e00000000000000000000000000000000000000000000006020830152604082019050919050565b600061363d606283614368565b91507f222c20226465736372697074696f6e223a20225468697320697320616e204e4660008301527f542074686174206c6574732070656f706c6520706c617920696e20746865206760208301527f616d65204d657461766572736520536c6179657221222c2022696d616765223a60408301527f20220000000000000000000000000000000000000000000000000000000000006060830152606282019050919050565b60006136ef600483614368565b91507f7d205d7d000000000000000000000000000000000000000000000000000000006000830152600482019050919050565b600061372f602083614357565b91507f4552433732313a206d696e7420746f20746865207a65726f20616464726573736000830152602082019050919050565b600061376f602c83614357565b91507f4552433732313a20617070726f76656420717565727920666f72206e6f6e657860008301527f697374656e7420746f6b656e00000000000000000000000000000000000000006020830152604082019050919050565b60006137d5602983614357565b91507f4552433732313a207472616e73666572206f6620746f6b656e2074686174206960008301527f73206e6f74206f776e00000000000000000000000000000000000000000000006020830152604082019050919050565b600061383b600a83614368565b91507f7b226e616d65223a2022000000000000000000000000000000000000000000006000830152600a82019050919050565b600061387b602183614357565b91507f4552433732313a20617070726f76616c20746f2063757272656e74206f776e6560008301527f72000000000000000000000000000000000000000000000000000000000000006020830152604082019050919050565b60006138e1602983614357565b91507f4572726f72203a20746f206765742061747461636b656420626f7373206d757360008301527f74206861766520687000000000000000000000000000000000000000000000006020830152604082019050919050565b6000613947601d83614368565b91507f646174613a6170706c69636174696f6e2f6a736f6e3b6261736536342c0000006000830152601d82019050919050565b6000613987603183614357565b91507f4552433732313a207472616e736665722063616c6c6572206973206e6f74206f60008301527f776e6572206e6f7220617070726f7665640000000000000000000000000000006020830152604082019050919050565b60006139ed603d83614368565b91507f222c202261747472696275746573223a205b207b202274726169745f7479706560008301527f223a20224865616c746820506f696e7473222c202276616c7565223a200000006020830152603d82019050919050565b6000613a53602d83614368565b91507f7d2c207b202274726169745f74797065223a202241747461636b2044616d616760008301527f65222c202276616c7565223a20000000000000000000000000000000000000006020830152602d82019050919050565b600060a0830160008301518482036000860152613ac982826131c3565b91505060208301518482036020860152613ae382826131c3565b9150506040830151613af86040860182613c49565b506060830151613b0b6060860182613c49565b506080830151613b1e6080860182613c49565b508091505092915050565b600060c083016000830151613b416000860182613c49565b5060208301518482036020860152613b5982826131c3565b91505060408301518482036040860152613b7382826131c3565b9150506060830151613b886060860182613c49565b506080830151613b9b6080860182613c49565b5060a0830151613bae60a0860182613c49565b508091505092915050565b600060c083016000830151613bd16000860182613c49565b5060208301518482036020860152613be982826131c3565b91505060408301518482036040860152613c0382826131c3565b9150506060830151613c186060860182613c49565b506080830151613c2b6080860182613c49565b5060a0830151613c3e60a0860182613c49565b508091505092915050565b613c52816144f2565b82525050565b613c61816144f2565b82525050565b6000613c728261382e565b9150613c7e8289613235565b9150613c8982613266565b9150613c958288613235565b9150613ca082613630565b9150613cac8287613235565b9150613cb7826139e0565b9150613cc38286613235565b9150613cce8261334c565b9150613cda8285613235565b9150613ce582613a46565b9150613cf18284613235565b9150613cfc826136e2565b9150819050979650505050505050565b6000613d178261393a565b9150613d238284613235565b915081905092915050565b6000602082019050613d4360008301846130f7565b92915050565b6000608082019050613d5e60008301876130f7565b613d6b60208301866130f7565b613d786040830185613c58565b8181036060830152613d8a818461318a565b905095945050505050565b6000606082019050613daa60008301866130f7565b613db76020830185613c58565b613dc46040830184613c58565b949350505050565b60006020820190508181036000830152613de68184613106565b905092915050565b6000602082019050613e03600083018461317b565b92915050565b60006020820190508181036000830152613e2381846131fc565b905092915050565b60006040820190508181036000830152613e4581856131fc565b90508181036020830152613e5981846131fc565b90509392505050565b60006080820190508181036000830152613e7c81876131fc565b90508181036020830152613e9081866131fc565b9050613e9f6040830185613c58565b8181036060830152613eb181846131fc565b905095945050505050565b60006080820190508181036000830152613ed681876131fc565b90508181036020830152613eea81866131fc565b9050613ef96040830185613c58565b613f066060830184613c58565b95945050505050565b600060a0820190508181036000830152613f2981886131fc565b90508181036020830152613f3d81876131fc565b9050613f4c6040830186613c58565b613f596060830185613c58565b613f666080830184613c58565b9695505050505050565b60006060820190508181036000830152613f8a81866131fc565b9050613f996020830185613c58565b613fa66040830184613c58565b949350505050565b60006020820190508181036000830152613fc7816132a6565b9050919050565b60006020820190508181036000830152613fe78161330c565b9050919050565b600060208201905081810360008301526140078161338c565b9050919050565b60006020820190508181036000830152614027816133f2565b9050919050565b6000602082019050818103600083015261404781613432565b9050919050565b6000602082019050818103600083015261406781613498565b9050919050565b60006020820190508181036000830152614087816134fe565b9050919050565b600060208201905081810360008301526140a781613564565b9050919050565b600060208201905081810360008301526140c7816135ca565b9050919050565b600060208201905081810360008301526140e781613722565b9050919050565b6000602082019050818103600083015261410781613762565b9050919050565b60006020820190508181036000830152614127816137c8565b9050919050565b600060208201905081810360008301526141478161386e565b9050919050565b60006020820190508181036000830152614167816138d4565b9050919050565b600060208201905081810360008301526141878161397a565b9050919050565b600060208201905081810360008301526141a88184613aac565b905092915050565b600060208201905081810360008301526141ca8184613bb9565b905092915050565b60006020820190506141e76000830184613c58565b92915050565b600060c0820190506142026000830189613c58565b818103602083015261421481886131fc565b9050818103604083015261422881876131fc565b90506142376060830186613c58565b6142446080830185613c58565b61425160a0830184613c58565b979650505050505050565b60006040820190506142716000830185613c58565b61427e6020830184613c58565b9392505050565b6000604051905081810181811067ffffffffffffffff821117156142ac576142ab614677565b5b8060405250919050565b600067ffffffffffffffff8211156142d1576142d0614677565b5b601f19601f8301169050602081019050919050565b6000819050602082019050919050565b600081519050919050565b600081519050919050565b600081519050919050565b6000602082019050919050565b600082825260208201905092915050565b600082825260208201905092915050565b600082825260208201905092915050565b600082825260208201905092915050565b600081905092915050565b600061437e826144f2565b9150614389836144f2565b9250827fffffffffffffffffffffffffffffffffffffffffffffffffffffffffffffffff038211156143be576143bd6145ea565b5b828201905092915050565b60006143d4826144f2565b91506143df836144f2565b9250826143ef576143ee614619565b5b828204905092915050565b6000614405826144f2565b9150614410836144f2565b9250817fffffffffffffffffffffffffffffffffffffffffffffffffffffffffffffffff0483118215151615614449576144486145ea565b5b828202905092915050565b600061445f826144f2565b915061446a836144f2565b92508282101561447d5761447c6145ea565b5b828203905092915050565b6000614493826144d2565b9050919050565b60008115159050919050565b60007fffffffff0000000000000000000000000000000000000000000000000000000082169050919050565b600073ffffffffffffffffffffffffffffffffffffffff82169050919050565b6000819050919050565b82818337600083830152505050565b60005b8381101561452957808201518184015260208101905061450e565b83811115614538576000848401525b50505050565b6000600282049050600182168061455657607f821691505b6020821081141561456a57614569614648565b5b50919050565b600061457b826144f2565b91507fffffffffffffffffffffffffffffffffffffffffffffffffffffffffffffffff8214156145ae576145ad6145ea565b5b600182019050919050565b60006145c4826144f2565b91506145cf836144f2565b9250826145df576145de614619565b5b828206905092915050565b7f4e487b7100000000000000000000000000000000000000000000000000000000600052601160045260246000fd5b7f4e487b7100000000000000000000000000000000000000000000000000000000600052601260045260246000fd5b7f4e487b7100000000000000000000000000000000000000000000000000000000600052602260045260246000fd5b7f4e487b7100000000000000000000000000000000000000000000000000000000600052604160045260246000fd5b6000601f19601f8301169050919050565b6146c081614488565b81146146cb57600080fd5b50565b6146d78161449a565b81146146e257600080fd5b50565b6146ee816144a6565b81146146f957600080fd5b50565b614705816144f2565b811461471057600080fd5b5056fe506c61796572206e616d65203a20257320204850203a202573202041747461636b44616d616765203a202573426f7373206e616d65203a202573204850203a202573202041747461636b44616d616765203a2025734142434445464748494a4b4c4d4e4f505152535455565758595a6162636465666768696a6b6c6d6e6f707172737475767778797a303132333435363738392b2fa2646970667358221220171b378807f6057e04d71bae6e6f64a7f1697446774c0b524ab05d8974ee803364736f6c63430008000033446f6e6520696e697469616c697a696e6720257320772f2048502025732c20696d67202573",
    "linkReferences": {},
    "deployedLinkReferences": {}
}